:020000040800F2
:10000000F807002065010008A5140008ED1300089A
:1000100000000000000000000000000000000000E0
:10002000000000000000000000000000EF140008C5
:100030000000000000000000ED140008F1140008AA
:1000400077010008770100087701000877010008B0
:1000500077010008770100087701000877010008A0
:100060007701000877010008770100087701000890
:100070007701000877010008000000007701000800
:1000800000000000770100080000000000000000F0
:1000900077010008000000007701000877010008E0
:1000A0007701000877010008770100087701000850
:1000B0007701000877010008770100087701000840
:1000C00000F002F800F03EF80CA030C80838241800
:1000D0002D18A246671EAB4654465D46AC4201D180
:1000E00000F030F87E460F3E0FCCB6460126334274
:1000F00000D0FB1AA246AB463343184784190000D0
:10010000A4190000103A02D378C878C1FAD852076F
:1001100001D330C830C101D504680C6070470000BD
:100120000023002400250026103A01D378C1FBD813
:10013000520700D330C100D50B6070471FB51FBDFB
:1001400010B510BD00F081F91146FFF7F7FF01F07F
:100150001FFC00F099F903B4FFF7F2FF03BC00F0B5
:100160009BF900000748804707480047FEE7FEE785
:10017000FEE7FEE7FEE7FEE704480549054A064BB1
:10018000704700006D150008C1000008F80100204C
:10019000F8070020F8030020F8030020FEB505460C
:1001A00010460C46184373D0AE468C460020AD1A5C
:1001B00001469C4167D36646002701243D46B61A96
:1001C0009D4102D313463A462124654676462F04C4
:1001D000360C3E432D0CB61A9D4104D3150C1B045E
:1001E0002B4312041034654676462F06360A3E43EA
:1001F0002D0AB61A9D4104D3150E1B022B43120281
:100200000834654676462F0736093E432D09B61A4F
:100210009D4104D3150F1B012B431201241D65467C
:100220007646AF07B6083E43AD08B61A9D4104D3E3
:10023000950F9B002B439200A41C65467646EF0762
:1002400076083E436D08B61A9D411AD392185B4159
:10025000641C16E00018764665464941B71A9D4170
:100260000191009009D36046B11A98418E468446A8
:10027000009801990025401C6941DD0752082A4376
:100280005B08641EE6D57246634603B0F0BDFFE727
:1002900000200146C046C0462A462346F5E701E055
:1002A00004C0091F0429FBD28B0701D50280801CE2
:1002B000C90700D00270704700290BD0C30702D0D5
:1002C0000270401C491E022904D3830702D5028014
:1002D000801C891EE3E70022EEE70022DFE7002210
:1002E00003098B422CD3030A8B4211D300239C4673
:1002F0004EE003460B433CD4002243088B4231D3EB
:1003000003098B421CD3030A8B4201D394463FE07E
:10031000C3098B4201D3CB01C01A524183098B42DE
:1003200001D38B01C01A524143098B4201D34B01C7
:10033000C01A524103098B4201D30B01C01A52412A
:10034000C3088B4201D3CB00C01A524183088B42B1
:1003500001D38B00C01A524143088B4201D34B009A
:10036000C01A5241411A00D201465241104670470C
:100370005DE0CA0F00D04942031000D34042534011
:1003800000229C4603098B422DD3030A8B4212D3D1
:10039000FC22890112BA030A8B420CD38901921103
:1003A0008B4208D3890192118B4204D389013AD040
:1003B000921100E08909C3098B4201D3CB01C01A15
:1003C000524183098B4201D38B01C01A5241430928
:1003D0008B4201D34B01C01A524103098B4201D316
:1003E0000B01C01A5241C3088B4201D3CB00C01A83
:1003F000524183088B4201D38B00C01A5241D9D29B
:1004000043088B4201D34B00C01A5241411A00D21B
:100410000146634652415B10104601D34042002B17
:1004200000D54942704763465B1000D3404201B596
:100430000020C046C04602BD7047704770470000AC
:10044000004870479801002070477546FFF7F8FF95
:10045000AE46050069465346C008C000854618B040
:1004600020B5FFF789FE60BC00274908B646002684
:10047000C0C5C0C5C0C5C0C5C0C5C0C5C0C5C0C554
:10048000403D49008D46704710B50446C046C04601
:100490002046FFF760FE10BD01491820ABBEFEE705
:1004A0002600020070B5049E018004461D461421FA
:1004B0001046FFF714FF6080E5712672012060721C
:1004C00004484178890009188C614178491C4170C1
:1004D00070BD00000C01002010B5002106480A463E
:1004E00006E08B001B189C69491CA2809B699A71CD
:1004F00043788B42F5D810BD0C010020F0B534488C
:1005000005460168083D00290BD009698088014231
:100510002846007802D10121084301E0400840004C
:1005200028702B4F0024083F2A4E4DE07878002891
:1005300003D02878002842D045E0A00080198446E6
:100540008069417A01293ED12A7801888A4202D104
:100550008379002B0AD08A4217D18379002B14D0DB
:10056000007A00280AD0032808D02CE0818842882D
:10057000914201D2491C20E0012118E001200146EE
:10058000134AA140121F11601CE0914311D08179E0
:1005900000290ED0017A012901D0032906D10123B7
:1005A00019460B4AA140121F11607B700021817116
:1005B00009E00021817160468069818003E0FFF7D6
:1005C0008BFF00207870641C7078A042AED8F0BD1C
:1005D000240000200C0100200268002A08D0506886
:1005E000002803D0024640680028FBD151607047C4
:1005F000016070470648002205E0890009184A603A
:10060000C178491EC170C1780029F6D17047000039
:100610000C01002010B51A491A4C884211D12068EB
:10062000400705D505202021000700F0D5F920E07E
:100630002068800703D5012000F05CF819E02068ED
:1006400017E00F490831884202D00831884210D1A2
:100650002068400701D5012003E02068800703D50A
:10066000002000F023F804E02068C00701D0FFF765
:10067000C1FF2068002802D0034800F095F810BDA3
:1006800004000020200000206000002010B5054874
:10069000C178890008184068FFF7BCFF02490020B4
:1006A000086010BD0C0100202000002030B5104A69
:1006B000516800290CD0D1788D00AC1861680028F1
:1006C0000B4606D04868002801D150590068606088
:1006D00030BD50590068984204D1496848680028E4
:1006E000FBD103E0014640689842FBD1616030BD18
:1006F0000C01002010B5002818D01049CB789A00C2
:100700005218012813D0022814D0C01EC4B2506859
:10071000006840682246641E4068E4B2002AF9D1AD
:100720005B1CDAB2CA7092005118486010BD506864
:100730000068F5E7506800684068F1E70C010020A8
:1007400001494860704700000C0100200160054924
:1007500002728A789200521890658878401C8870DE
:10076000704700000C0100207047000010B50D4AD2
:1007700041681368994207D90F23DB4304685B1A69
:100780001B191468A34207D91368994208D2036859
:10079000C9181368994203D811684160012010BD3F
:1007A000002010BD4C0000200149096841607047DD
:1007B0004C0000201C4914201C4E0D46803D086052
:1007C0001948FFF7D3FF002801D0FFF797FE3068E4
:1007D000002803D0FFF75AFFFFF758FF13480C30EB
:1007E000FFF7C4FF002801D0FFF750FF002416E0F8
:1007F000A0004719B86DFFF7B9FF002805D0B86D04
:10080000017A012901D100F013F808481830FFF7E8
:10081000ADFF002801D0FFF7A7FF641CE4B2A87861
:10082000A042CDD9E4E700008C0100202000002088
:10083000084A10B50849904203D10868401C086076
:1008400010BD044A0C329042FAD100200860FFF734
:10085000D1FE10BD540000200000002070470000B1
:10086000FCB500230124A2E027462A469F403A40D7
:100870006FD04D68012D05D0022D03D0112D01D070
:10088000122D16D185680326AC465D00AE46AE40FB
:100890006546B543AC46CE687546AE4065462E43C8
:1008A000866046680D79BE43ED06ED0F9D403543E9
:1008B0004560C6685F000325BD40AE46AE43354681
:1008C0008E68BE402E43C6604E68022E01D0122EA6
:1008D00014D1DE08B60036180196366A5D07B446B4
:1008E000EE0E0F25B54000966646AE43B4460D6940
:1008F000009EB54066462E43019D2E6206687546F1
:10090000AE430D79AD07AD0FBD40354305604D6871
:10091000ED004BD5294D6E6B26436E639E08284D26
:10092000B6007519AC46AD689E07360F0F27B74065
:10093000BD4305273F07B84201D1002715E0214FED
:10094000B84201D1012710E01F4FB84202D102275F
:100950000BE02BE01D4FB84201D1032705E01C4FEF
:10096000B84201D1052700E00627B7402F4365466E
:10097000AF60184D2E684F689643FF0300D51643AD
:100980002E606E684F689643BF0300D516436E60B5
:10099000AE684F689643FF0200D51643AE60EE681E
:1009A0004F689643BF0200D51643EE605B1C0A6891
:1009B0001546DA4000D057E7FCBD000000100240A9
:1009C000000001400004005000080050000C0050DE
:1009D000001C005000040140426913460B401B04F8
:1009E00091430B4383617047002A01D081617047B6
:1009F0008162704701488068704700004400002011
:100A0000064801681022D14201D9002103E00168A3
:100A1000034A127889180160704700004C000020DA
:100A20004400002010B5084800240168402211430A
:100A30000160204600F00AF8002801D0012401E0FE
:100A400000F026F8204610BD0020024070B5044694
:100A50000D4D7D202978C000FFF741FC01460B4871
:100A60000068FFF73CFC00F045FC002809D1042C8D
:100A700007D200222146401E00F016F800206C60CC
:100A800070BD012070BD0000440000205000002017
:100A90000448416B012211434163816B02041143FD
:100AA000816370470010024010B500F0FDFC10BDDE
:100AB000F8B504460068614D810601D400057DD576
:100AC0005E4E0027403EB06BC00004D4B06B3104D2
:100AD0000843B06301275A480168C90511D4016869
:100AE000821511430160FFF785FF009005E0FFF7D5
:100AF00081FF0099401A642844D851480068C00515
:100B0000F5D5316803200005626801401040884235
:100B100005D10323A0681B051840884208D0900324
:100B2000800F032804D13068800301D50120F8BD6F
:100B3000286903210904084029D00A40824202D0D2
:100B40002278920606D4A2680A4082421FD02088EA
:100B500000051CD528692A6988430121C9040A4374
:100B60002A612A698A432A612861C0050FD5FFF7E7
:100B700041FF009008E0FFF73DFF0099411A31481E
:100B8000814201D90320F8BD28698005F3D5616849
:100B90008803800F032805D1326800058243014095
:100BA0000A43326028690322616812041140084335
:100BB0002861002F06D0B16B012000E002E00007A1
:100BC0008143B1632078C00705D0E868E1688008F8
:100BD00080000843E8602078800705D5E8680C218C
:100BE000884321690843E8602078400706D5E86813
:100BF00003218902884361690843E860207800077F
:100C000006D5E868032109038843A1690843E86021
:100C10002078400606D5E868012189068843216AC4
:100C20000843E8602078000606D5E86803218904B7
:100C30008843E1690843E8600020F8BD40100240A5
:100C40000070004088130000F8B50E4605007DD006
:100C500053480068C007C00FB0420AD2504801682C
:100C600049084900314301600068C007C00FB04225
:100C700071D128784B4C800705D5E068F021884376
:100C8000A9680843E0602878C00752D06868022845
:100C900017D0032818D02168012818D08905002909
:100CA00059DAE168890889000143E160FFF7A2FE93
:100CB00069680746022912D003291CD0012926D0D1
:100CC00033E021688903EAE721688901E7E74907FA
:100CD000E5E7FFF78FFEC11B3348814223D8E06868
:100CE0000007800F0228F4D123E0FFF783FEC11B29
:100CF0002D48814217D8E0680007800F0328F4D1FF
:100D000017E0FFF777FEC11B274881420BD8E06848
:100D10000007800F0128F4D10BE0FFF76BFEC11B29
:100D20002148814201D90320F8BDE0680007800F07
:100D3000F3D11B480168C907C90FB1420DD9016839
:100D40004908490031430160006800E003E0C00742
:100D5000C00FB04201D00120F8BD2878400706D569
:100D6000E068072109028843E9680843E0602878C1
:100D7000000707D5E0680721C90288432969C9002F
:100D80000843E06000F036F8E168084A0906090FF8
:100D9000515CC840064908600020FFF757FEF8BDC7
:100DA0000020024000100240881300005C1A000876
:100DB00050000020044805490068C968044A4905F4
:100DC000490F515CC840704750000020001002409D
:100DD000751A0008044805490068C968044A89046E
:100DE000490F515CC840704750000020001002407D
:100DF000751A000810B5184AD1680C20084004285C
:100E00000BD0082810D00C2810D050680004410FD7
:100E10000120C003491C884010BD1068C00601D5E0
:100E20000E4810BD0E4810BD0E4810BD88020E4B76
:100E3000000F185C0902D368890F491CDB0301D538
:100E4000084A05E01268D20601D5044A00E0044AC7
:100E50005043FFF744FA10BD0010024000093D0066
:100E60000024F40000127A006C1A0008FEB5050098
:100E70007ED0FE4CE7680C20E668074001200004A5
:100E800006402878C00747D0082F05D00C2F0AD17C
:100E900001200004864206D1206880033CD56868A2
:100EA0000028E5D038E0012069680004814203D1C0
:100EB00021680143216011E0052301221B049204F3
:100EC0009942216802D111432160F1E781432160F9
:100ED00021680140009120689043206068680028E4
:100EE0000DD0FFF787FD009005E0FFF783FD009927
:100EF000401A64287AD820688003F6D50CE0FFF702
:100F000079FD009005E0FFF775FD0099401A64280F
:100F1000F0D820688003F6D42878800755D50923B7
:100F2000E868042F0DD00C2F01D1002E09D0002825
:100F30003BD02168994301432160FFF75BFD0646E2
:100F400027E02168490701D5002891D061681F2258
:100F5000120291432A691202114361602168994388
:100F600001432160FFF746FFE16809060A0F00E030
:100F7000BBE1BF49895CC840BE4908600020FFF75B
:100F800065FD002872D120E0FFF734FD801B0228A8
:100F9000B0D820684007F7D560681F210902884350
:100FA00029690902084360600FE02068400840009A
:100FB0002060FFF71FFD064604E0FFF71BFD801BC6
:100FC000022897D820684007F7D42878C0065FD554
:100FD000002F0CD0E869002849D02068FF2101319A
:100FE00008432060FFF706FD06462DE0E4E0206898
:100FF000800502D5E8690028A7D060680721490369
:101000008843696A084360606068298C0002000AAE
:10101000090608436060686A410B0120C003491C4F
:101020008840E16809060A0F9149895CC8409149E6
:1010300008600020FFF70AFD002817D128E0FFF71D
:10104000D9FC801B0228A3D820688005F7D56068EA
:10105000072149038843696A084360606068298CF6
:101060000002000A09060843606011E023E12168DC
:10107000FF20013081432160FFF7BCFC064604E0FD
:10108000FFF7B8FC801B02289BD820688005F7D4A6
:101090002878794E000724D568690028306910D077
:1010A000012108433061FFF7A5FC009005E0FFF740
:1010B000A1FC0099401A02287ED830698007F6D535
:1010C0000FE0400840003061FFF794FC009005E01D
:1010D000FFF790FC0099401A02286DD8306980070C
:1010E000F6D42878400764D500200290A06BC00099
:1010F00006D4A06B012109070843A06301200290D8
:101100005E480168C90511D4016882151143016068
:10111000FFF770FC009005E0FFF76CFC0099401AA7
:10112000642849D855480068C005F5D5FF20AA684D
:101130000130824203D131690143316111E0012163
:101140008902002A07D005231B029A4203D1326983
:101150000A433261EFE73269824332613069884382
:101160003061A86800280ED0FFF744FC009006E02C
:10117000FFF740FC0099411A414881421CD8306970
:101180008005F5D50DE0FFF735FC009006E0FFF790
:1011900031FC0099411A3A4881420DD830698005E6
:1011A000F5D40298002804D0A16B012000078143E8
:1011B000A1632878800600E07CE02ED53148A9693B
:1011C0004314002916D0A26801210A43A260626B71
:1011D0000A436263016A19430162FFF70BFC06468A
:1011E00004E0FFF707FC801B022863D8A068800793
:1011F000F7D512E0A16849084900A160016A994346
:101200000162FFF7F7FB064604E0FFF7F3FB801BE4
:1012100002284FD8A0688007F7D4A86A002866D0B3
:101220000C2F4DD0012636060228206805D0B04389
:101230002060FFF7DFFB05463EE0B0432060FFF78C
:10124000D9FB074604E0FFF7D5FBC01B022831D8C5
:1012500020688001F7D4296BE86AE2680843696B6B
:10126000FD231B049A43114308430DE00010024084
:101270005C1A00085000002040100240007000403E
:101280008813000000000140E060206830432060C7
:10129000FFF7B0FB054604E0FFF7ACFB401B02285C
:1012A00008D820688001F7D521E0FFF7A3FB401B99
:1012B000022801D90320FEBD20688001F5D416E084
:1012C0000128F8D0E06801210904EA6A014091424E
:1012D0000BD10F2189042A6B0140914205D10321D2
:1012E00089050840696B884201D00120FEBD0020BD
:1012F000FEBD0000094910B5401E884201D90120F9
:1013000010BD074C60610321081F00F0CDF80020DC
:10131000A06107202061002010BD0000FFFFFF003A
:1013200000E000E010B5040003D0606F002802D098
:1013300007E0012010BD002170200155204600F07B
:1013400027F8242060672068016849084900016087
:10135000204600F0CBF90128ECD0606A002802D0CA
:10136000204600F02DF9206841680922D2029143FD
:101370004160206881682A22914381602068016869
:10138000012211430160204600F080F910BD0000E9
:1013900010B586B0044614216846FEF79EFF114939
:1013A000206888421BD11048816B012252041143EE
:1013B0008163C16A01221143C162C06A694610405B
:1013C00005900C2000900220019000200290032044
:1013D00003900420049005200007FFF741FA06B0AF
:1013E00010BD00000044004000100240FEE7000075
:1013F00070B586B014216846FEF76FFF1848C26AC0
:1014000004210A43C262C26A0A400592C26A80216C
:101410000A43C262C26A0A400592C16A0125294391
:10142000C162C06A052628403607059000222021A7
:101430003046FFF7D9FA680300900A48002401906B
:10144000694602940848FFF70BFA202000900294A6
:101450006946019503943046FFF702FA06B070BD65
:1014600000100240000021100008005010B50C4888
:101470000A490160E1214902416000218160C160A7
:1014800001618161C1610C22016242614162FFF729
:1014900049FF002801D0FFF7E1F910BD00440040EA
:1014A0008C000020704700008307FF22DB0E9A406B
:1014B0008907090E994000280BDA0007000F083849
:1014C000830808489B001818C36993430B43C36102
:1014D0007047830804489B001B1818689043084312
:1014E0001860704700ED00E000E400E070477047CE
:1014F00010B5FFF785FA10BD30B59DB038216846AC
:10150000FEF7EBFE142117A8FEF7E7FE24210EA834
:10151000FEF7E3FE144801680322D2029143C2148D
:1015200089180160012003901020049080030C9022
:1015300002250001009500240D900A950B94684641
:10154000FFF794FC0F2017900320189019941A9419
:1015500001211B9417A8FFF777FB0EA80E95129494
:10156000FFF7A6FA1DB030BD0070004010480168BA
:10157000821511430160C1680E4A1140C1600168C3
:101580000D4A114001608168490849008160016885
:101590000122920491430160C168FD22120491432B
:1015A000C160002101610549C003886070470000E7
:1015B000001002400C40FF88F6FFF6FE00ED00E050
:1015C00010B5818CC90707D001684A6801235B0404
:1015D0009A43836A1A434A60818C890707D5016858
:1015E0004A6801231B049A43C36A1A434A60818CE8
:1015F000490707D501684A6801239B049A43036B96
:101600001A434A60818C090707D501684A6801239B
:10161000DB039A43436B1A434A60818CC90607D5A2
:101620000268916801231B039943836B19439160FE
:10163000818C890607D501688A6801235B039A4378
:10164000C36B1A438A60818C490612D503685A68B5
:1016500001210905046C8A4322435A60026C8A42C4
:1016600007D10268516803235B059943436C194312
:101670005160818C090607D501684A680123DB04A3
:10168000806C9A4302434A6010BD0000F8B5002602
:101690000446C667FFF7AEF9054620680068124F9A
:1016A000000709D501212B46002249052046009755
:1016B00000F030F900280DD12068006840070BD5F4
:1016C00001212B46002289052046009700F022F9CF
:1016D000002801D00320F8BD20206067A067603497
:1016E00026740020F8BD0000FFFFFF01F8B5044696
:1016F0002669A268E76932436669102000253E43E7
:101700002368324378491E68784F3E4016431E6076
:1017100023685A6803263603B243E66832435A60A8
:101720002368A2698B4201D0266A32439E680B2748
:101730003F02BE4316439E606D4E23686D4AB3421E
:101740000CD1D2689207920F06D0012A38D0022A13
:1017500034D0032A20D11EE001201DE0664EB342A2
:101760000AD1D2680C26324026D0042A28D0082A72
:1017700024D00C2A10D10EE08B420DD1D668032262
:101780009202164018D001229202B61A18D0B61A48
:1017900014D0964200D10820564A0126403A574FAD
:1017A000F6038B4236D100280CD002280DD0042835
:1017B00012D008281FD11CE00020EDE70220EBE743
:1017C0000420E9E7FFF7F6FA08E01068C00601D543
:1017D000384605E04A4803E0FFF70CFB002873D0C9
:1017E000626851005118814205D81103814202D329
:1017F00003E03046F4E7012566E0010E06025008DA
:10180000002330185941FEF7C9FC03210902411A8F
:101810003C4A55E0E169B14232D1030000F0ABF837
:1018200009070A0D06250606062B0600E3E7FFF763
:10183000C1FA1CE0FFF7CEFA19E010686168C00633
:1018400002D54808304A01E0304A48088018FEF7BF
:1018500046FD80B201462E4A10399142CBD8511C28
:1018600001400007400F08432CE0FFF7C3FA61680E
:1018700040004A08EAE76168012248081204E5E7E7
:10188000030000F078F809070A0D06260606062C64
:101890000600B0E7FFF78EFA1DE0FFF79BFA1AE0AB
:1018A00010686168C00602D54808C01902E01448F3
:1018B0004A081018FEF713FD80B20146144A103989
:1018C000914298D82168C86000202066606628464A
:1018D000F8BDFFF78FFA61684A088018EAE7616887
:1018E00048088019E6E7000000480040F369FFEF70
:1018F00000380140401002400044004000093D0013
:101900000024F400FFFC0F0000127A000048E801F8
:10191000EFFF0000FFB581B017460E4604460A9D52
:1019200009E0681C07D0FFF765F80499401AA8423F
:101930000CD8002D0AD02068C1693046884318D0E1
:101940000020B842EDD0002005B0F0BD206801684D
:10195000FF22A13291430160206881684908490053
:10196000816020206067A06700206034207403201D
:10197000EAE70120E5E730B47446641E2578641C6C
:10198000AB4200D21D46635D5B00E31830BC1847D4
:1019900038B5FFF747F8FFF7AFFD7D252848ED0084
:1019A00029460068FEF79BFC2649401E88420CD859
:1019B000254A506125480721C3691B021B0A8C0771
:1019C0002343C361002090611161FFF711FDFFF710
:1019D0004DFD01247D220023120121461C48009464
:1019E000FEF760FD1A4800232A4601210A380094B8
:1019F000FEF758FD164800233222012114380094C6
:101A0000FEF750FD1248012229462C38FEF79EFEB3
:101A10000F4801220F492038FEF798FE0E48FEF7C6
:101A20008FFE0D490C480831FEF7D6FD0A490A48D9
:101A30001031FEF7D1FDFEF7BDFE002038BD0000DD
:101A400050000020FFFFFF0000E000E004ED00E098
:101A500080000020204E0000040000200000000054
:101A60000000000001020304060708090304060839
:101A70000C101820300000000001020304000000D8
:101A8000A01A000800000020540000000401000813
:101A9000F41A000854000020A407000020010008E8
:101AA0000000000000000000000000000000000036
:101AB0000000000000000000000000000000000026
:101AC000000000000008005000200000E8030000B3
:101AD000000000000100000096000000000000006F
:101AE00001000000010000000400000000000000F0
:041AF00000002000D2
:04000005080000C12E
:00000001FF
